:100000000C942A000C943C000C943C000C943C0092
:100010000C943C000C943C000C943C000C943C0070
:100020000C943C000C943C000C943C000C943C0060
:100030000C943C000C94BA040C94E7040C94140542
:100040000C943C000C943C000C943C000C943C0040
:100050000C943C0011241FBECFE5D8E0DEBFCDBF1D
:1000600010E0A0E6B0E001C01D92A636B107E1F7AE
:100070000E9457000C9441050C940000DF93CF932D
:100080000F92CDB7DEB719820E94AB0489838981B4
:10009000813029F480E061E00E94590104C080E0D1
:1000A00060E00E9459010F90CF91DF910895DF9396
:1000B000CF93CDB7DEB70E9468000E9459038EE34C
:1000C00090E00E9442040E94EE030E943D03FFCF95
:1000D000DF93CF93CDB7DEB7EAE3F0E083E680832A
:1000E000E7E3F0E08FEF8083E4E3F0E080EF8083EC
:1000F000E1E3F0E082EB8083CF91DF910895DF931D
:10010000CF9300D00F92CDB7DEB78A836B838A81FD
:10011000803218F48B81823018F082E08983C2C06B
:100120008A81883060F58B818823A9F4AAE3B0E046
:10013000EAE3F0E08081482F8A81282F30E081E0D7
:1001400090E0022E02C0880F991F0A94E2F7809572
:1001500084238C93A6C0AAE3B0E0EAE3F0E08081B8
:10016000482F8A81282F30E081E090E0022E02C0E3
:10017000880F991F0A94E2F7842B8C9392C08A818E
:10018000803178F58A8187708A838B818823A9F4EE
:10019000A7E3B0E0E7E3F0E08081482F8A81282FD1
:1001A00030E081E090E0022E02C0880F991F0A948F
:1001B000E2F7809584238C9374C0A7E3B0E0E7E373
:1001C000F0E08081482F8A81282F30E081E090E0A4
:1001D000022E02C0880F991F0A94E2F7842B8C9399
:1001E00060C08A81883178F58A8187708A838B81A3
:1001F0008823A9F4A4E3B0E0E4E3F0E08081482F91
:100200008A81282F30E081E090E0022E02C0880F22
:10021000991F0A94E2F7809584238C9342C0A4E34B
:10022000B0E0E4E3F0E08081482F8A81282F30E0BD
:1002300081E090E0022E02C0880F991F0A94E2F735
:10024000842B8C932EC08A8187708A838B8188232C
:10025000A9F4A1E3B0E0E1E3F0E08081482F8A81D6
:10026000282F30E081E090E0022E02C0880F991F15
:100270000A94E2F7809584238C9313C0A1E3B0E045
:10028000E1E3F0E08081482F8A81282F30E081E08F
:1002900090E0022E02C0880F991F0A94E2F7842B87
:1002A0008C93198289810F900F900F90CF91DF91DD
:1002B0000895DF93CF9300D00F92CDB7DEB78A8336
:1002C0006B838A81803218F48B81823018F082E04F
:1002D0008983CBC08A81883060F58B818823A9F41B
:1002E000ABE3B0E0EBE3F0E08081482F8A81282F78
:1002F00030E081E090E0022E02C0880F991F0A943E
:10030000E2F7809584238C93AFC0ABE3B0E0EBE3DE
:10031000F0E08081482F8A81282F30E081E090E052
:10032000022E02C0880F991F0A94E2F7842B8C9347
:100330009BC08A81803190F58B818823C1F4A8E32A
:10034000B0E0E8E3F0E08081482F8A81882F90E0D8
:100350009C012770307081E090E0022E02C0880F6F
:10036000991F0A94E2F7809584238C937DC0A8E3BB
:10037000B0E0E8E3F0E08081482F8A81882F90E0A8
:100380009C012770307081E090E0022E02C0880F3F
:10039000991F0A94E2F7842B8C9366C08A81883176
:1003A00090F58B818823C1F4A5E3B0E0E5E3F0E0AC
:1003B0008081482F8A81882F90E09C0127703070BF
:1003C00081E090E0022E02C0880F991F0A94E2F7A4
:1003D000809584238C9348C0A5E3B0E0E5E3F0E08A
:1003E0008081482F8A81882F90E09C01277030708F
:1003F00081E090E0022E02C0880F991F0A94E2F774
:10040000842B8C9331C08B818823C1F4A2E3B0E0AC
:10041000E2E3F0E08081482F8A81882F90E09C0100
:100420002770307081E090E0022E02C0880F991F83
:100430000A94E2F7809584238C9316C0A2E3B0E07F
:10044000E2E3F0E08081482F8A81882F90E09C01D0
:100450002770307081E090E0022E02C0880F991F53
:100460000A94E2F7842B8C93198289810F900F9064
:100470000F90CF91DF910895DF93CF9300D0CDB748
:10048000DEB78A838A81803218F082E0898362C075
:100490008A818830A0F4ABE3B0E0EBE3F0E0808148
:1004A000482F8A81282F30E081E090E0022E02C0A0
:1004B000880F991F0A94E2F784278C934AC08A8197
:1004C0008031B8F4A8E3B0E0E8E3F0E08081482FA1
:1004D0008A81882F90E09C012770307081E090E045
:1004E000022E02C0880F991F0A94E2F784278C938A
:1004F00030C08A818831B8F4A5E3B0E0E5E3F0E0EC
:100500008081482F8A81882F90E09C01277030706D
:1005100081E090E0022E02C0880F991F0A94E2F752
:1005200084278C9316C0A2E3B0E0E2E3F0E0808180
:10053000482F8A81882F90E09C012770307081E0DD
:1005400090E0022E02C0880F991F0A94E2F78427D8
:100550008C93198289810F900F90CF91DF9108952C
:10056000DF93CF9300D000D0CDB7DEB78A837C83F2
:100570006B838A81803218F082E0898366C08B8128
:100580009C81009719F483E089835FC08A81883059
:10059000A0F4E9E3F0E08081282F30E08A81882F01
:1005A00090E0A90102C0559547958A95E2F7CA01E6
:1005B0008170EB81FC81808347C08A818031B0F4F7
:1005C000E6E3F0E08081282F30E08A81882F90E0F8
:1005D00087709070A90102C0559547958A95E2F7FA
:1005E000CA018170EB81FC8180832EC08A818831B1
:1005F000B0F4E3E3F0E08081282F30E08A81882F97
:1006000090E087709070A90102C0559547958A9532
:10061000E2F7CA018170EB81FC81808315C0E0E3C1
:10062000F0E08081282F30E08A81882F90E0877069
:100630009070A90102C0559547958A95E2F7CA01C5
:100640008170EB81FC818083198289810F900F90EA
:100650000F900F90CF91DF910895DF93CF9300D04B
:10066000CDB7DEB789836A8389816A810E94590187
:100670000F900F90CF91DF910895DF93CF93CDB777
:10068000DEB7AFE5B0E0EFE5F0E0808180688C9305
:10069000CF91DF910895DF93CF93CDB7DEB7AFE56C
:1006A000B0E0EFE5F0E080818F778C93CF91DF9120
:1006B0000895DF93CF930F92CDB7DEB780E889839B
:1006C000898186608983E0E4F0E089818083AAE201
:1006D000B0E0EAE2F0E0808188618C93ABE2B0E0C8
:1006E000EBE2F0E080818C93ABE2B0E0EBE2F0E093
:1006F00080818C93A0E4B0E0E0E4F0E080818F772B
:100700008C93E9E2F0E083E38083E0E4F0E01082A0
:100710000F90CF91DF910895DF93CF93CDB7DEB7E0
:10072000AAE2B0E0EAE2F0E0808188608C93AAE27D
:10073000B0E0EAE2F0E0808180618C93CF91DF91BC
:100740000895DF93CF93CDB7DEB7AAE2B0E0EAE237
:10075000F0E08081877F8C93AAE2B0E0EAE2F0E0EB
:1007600080818F7E8C93CF91DF910895DF93CF931B
:10077000CDB7DEB7AAE2B0E0EAE2F0E080818061C6
:100780008C93CF91DF910895DF93CF93CDB7DEB7F0
:10079000AAE2B0E0EAE2F0E080818F7E8C93CF9114
:1007A000DF910895DF93CF93CDB7DEB7AAE2B0E033
:1007B000EAE2F0E0808188608C93CF91DF91089528
:1007C000DF93CF93CDB7DEB7AAE2B0E0EAE2F0E084
:1007D0008081877F8C93CF91DF910895DF93CF93B2
:1007E000CDB7DEB7AAE2B0E0EAE2F0E0808180684F
:1007F0008C93CF91DF910895DF93CF93CDB7DEB780
:10080000AAE2B0E0EAE2F0E080818F778C93CF91AA
:10081000DF910895DF93CF93CDB7DEB7AAE2B0E0C2
:10082000EAE2F0E0808180648C93CF91DF910895BB
:10083000DF93CF93CDB7DEB7AAE2B0E0EAE2F0E013
:1008400080818F7B8C93CF91DF910895DF93CF933D
:10085000CDB7DEB7AAE2B0E0EAE2F0E080818062E4
:100860008C93CF91DF910895DF93CF93CDB7DEB70F
:10087000AAE2B0E0EAE2F0E080818F7D8C93CF9134
:10088000DF910895DF93CF9300D0CDB7DEB79A8381
:10089000898389819A8190936500809364000F9089
:1008A0000F90CF91DF910895DF93CF9300D0CDB714
:1008B000DEB79A83898389819A81909363008093BC
:1008C00062000F900F90CF91DF910895DF93CF9347
:1008D00000D0CDB7DEB79A83898389819A819093BE
:1008E0006100809360000F900F90CF91DF91089589
:1008F000DF93CF930F92CDB7DEB78983EBE2F0E0C1
:100900008081882F90E0807290700097B9F3ECE2BC
:10091000F0E0898180830F90CF91DF910895DF937C
:10092000CF9300D0CDB7DEB79A8389830AC0E9811F
:10093000FA8180810E94780489819A8101969A8344
:100940008983E981FA818081882389F70F900F904C
:10095000CF91DF910895DF93CF93CDB7DEB7EBE270
:10096000F0E080818823DCF7ECE2F0E08081CF9139
:10097000DF9108951F920F920FB60F9211242F93BB
:100980003F934F935F936F937F938F939F93AF9317
:10099000BF93EF93FF93DF93CF93CDB7DEB7E09193
:1009A0006400F09165000995CF91DF91FF91EF917F
:1009B000BF91AF919F918F917F916F915F914F9177
:1009C0003F912F910F900FBE0F901F9018951F927F
:1009D0000F920FB60F9211242F933F934F935F9373
:1009E0006F937F938F939F93AF93BF93EF93FF93F7
:1009F000DF93CF93CDB7DEB7E0916000F091610057
:100A00000995CF91DF91FF91EF91BF91AF919F91A8
:100A10008F917F916F915F914F913F912F910F90A7
:100A20000FBE0F901F9018951F920F920FB60F9246
:100A300011242F933F934F935F936F937F938F93E3
:100A40009F93AF93BF93EF93FF93DF93CF93CDB774
:100A5000DEB7E0916200F09163000995CF91DF91DC
:100A6000FF91EF91BF91AF919F918F917F916F9186
:100A70005F914F913F912F910F900FBE0F901F905C
:060A80001895F894FFCF69
:00000001FF
