:100000000C942A000C9450050C94E8050C944700BD
:100010000C9447000C9447000C9447000C94470044
:100020000C9447000C9447000C9447000C94470034
:100030000C9447000C94A5070C94D2070C94FF076E
:100040000C9447000C9447000C9447000C94470014
:100050000C94470011241FBECFE5D8E0DEBFCDBF12
:1000600011E0A0E6B0E0ECE5F0E102C005900D92F1
:10007000A033B107D9F711E0A0E3B1E001C01D92B0
:10008000A936B107E1F70E94F7000C942C080C94F4
:100090000000DF93CF930F92CDB7DEB70E94960793
:1000A000898380919800882309F05AC089818C3215
:1000B00091F481E08093320180913001882F90E0AB
:1000C000FC01EB5AFE4F10828091300180934C016D
:1000D0001092300145C089818A30B9F48091310194
:1000E000882F90E0FC01EB5CFE4F10828091310183
:1000F00080934D0110923101109232018AE0809379
:10010000980081E0809334012BC0809132018823D4
:1001100091F080913101893070F420913101822F6A
:1001200090E0FC01EB5CFE4F89818083822F8F5F22
:100130008093310115C080913201882389F4809128
:100140003001893068F420913001822F90E0FC0169
:10015000EB5AFE4F89818083822F8F5F809330011D
:1001600080919800813099F58981882F90E00E94D4
:1001700031069093500180934F0140913301842FB9
:1001800090E020914F0130915001880F991FFC01A0
:10019000EF5AFE4F31832083842F8F5F809333018A
:1001A00080913301823099F48091510190915201F4
:1001B000282F8091530190915401982F822F692FFD
:1001C0000E940003109233018AE080939800898195
:1001D0008A3219F41092980006C08981833219F48A
:1001E00081E0809398000F90CF91DF910895DF9385
:1001F000CF9300D000D00F92CDB7DEB70E940F0290
:100200000E94E4040E94440689E490E00E942D07C5
:100210000E94D90682E092E00E943E050E940705F6
:100220000E9415068AE161E00E94D40480913401A5
:10023000813009F0CDC080914D01843009F0BFC0FC
:1002400010924E011C8248C01B8229C08B81882FCE
:1002500090E0FC01EB5AFE4F60818C81282F30E04A
:100260008B81482F50E0C901880F991F820F931F7F
:100270009C01220F331F220F331F820F931F840F05
:10028000951FFC01E756FF4F8081681769F4809144
:100290003F018F5F80933F018B818F5F8B839091B4
:1002A0004C018B81891790F290913F0180914C0114
:1002B000981769F420914E01822F90E0FC01E05CD8
:1002C000FE4F8C818083822F8F5F80934E0110922E
:1002D0003F018C818F5F8C838C818A3008F4B4CF8E
:1002E00080914E018D831A8244C08D8181508D830F
:1002F00019822FC08981882F90E0FC01EB5CFE4FB2
:1003000060818D81882F90E0FC01E05CFE4F808150
:10031000282F30E08981482F50E0C901880F991FAC
:10032000820F931F9C01220F331F220F331F820F56
:10033000931F840F951FFC01ED55FF4F80816817B7
:1003400069F480914B018F5F80934B0189818F5FAE
:10035000898390914D018981891760F290914B01B9
:1003600080914D01981759F010924B018A818F5F4F
:100370008A8390914E018A81891708F4B6CF8091C3
:100380004E01882351F480914A018F5F80934A0186
:1003900080E690E00E947A071BC090914B0180910B
:1003A0004D01981739F410924A018BE690E00E94B3
:1003B0007A070EC088E790E00E947A0709C0809112
:1003C0004A018F5F80934A0189E890E00E947A0792
:1003D00080914A01833021F410924A010E94F50174
:1003E0001092340110924B0121CFDF93CF93CDB700
:1003F000DEB785E090E061E070E00E940003CF91FD
:10040000DF910895DF93CF93CDB7DEB785E090E01D
:1004100060E070E00E940003CF91DF910895DF93C8
:10042000CF93CDB7DEB7EAE3F0E08FEF8083E7E369
:10043000F0E08FEF8083E4E3F0E080EF8083E1E39E
:10044000F0E082EB8083CF91DF910895DF93CF932B
:1004500000D00F92CDB7DEB78A836B838A8180325A
:1004600018F48B81823018F082E08983C2C08A81BF
:10047000883060F58B818823A9F4AAE3B0E0EAE331
:10048000F0E08081482F8A81282F30E081E090E0E1
:10049000022E02C0880F991F0A94E2F780958423E8
:1004A0008C93A6C0AAE3B0E0EAE3F0E08081482F95
:1004B0008A81282F30E081E090E0022E02C0880F70
:1004C000991F0A94E2F7842B8C9392C08A81803121
:1004D00078F58A8187708A838B818823A9F4A7E3C2
:1004E000B0E0E7E3F0E08081482F8A81282F30E0F8
:1004F00081E090E0022E02C0880F991F0A94E2F773
:10050000809584238C9374C0A7E3B0E0E7E3F0E028
:100510008081482F8A81282F30E081E090E0022EF0
:1005200002C0880F991F0A94E2F7842B8C9360C055
:100530008A81883178F58A8187708A838B818823C4
:10054000A9F4A4E3B0E0E4E3F0E08081482F8A81DD
:10055000282F30E081E090E0022E02C0880F991F22
:100560000A94E2F7809584238C9342C0A4E3B0E020
:10057000E4E3F0E08081482F8A81282F30E081E099
:1005800090E0022E02C0880F991F0A94E2F7842B94
:100590008C932EC08A8187708A838B818823A9F4EB
:1005A000A1E3B0E0E1E3F0E08081482F8A81282FC9
:1005B00030E081E090E0022E02C0880F991F0A947B
:1005C000E2F7809584238C9313C0A1E3B0E0E1E3CC
:1005D000F0E08081482F8A81282F30E081E090E090
:1005E000022E02C0880F991F0A94E2F7842B8C9385
:1005F000198289810F900F900F90CF91DF9108950C
:10060000DF93CF9300D00F92CDB7DEB78A836B8391
:100610008A81803218F48B81823018F082E08983DD
:10062000CBC08A81883060F58B818823A9F4ABE345
:10063000B0E0EBE3F0E08081482F8A81282F30E0A2
:1006400081E090E0022E02C0880F991F0A94E2F721
:10065000809584238C93AFC0ABE3B0E0EBE3F0E094
:100660008081482F8A81282F30E081E090E0022E9F
:1006700002C0880F991F0A94E2F7842B8C939BC0C9
:100680008A81803190F58B818823C1F4A8E3B0E0A2
:10069000E8E3F0E08081482F8A81882F90E09C0178
:1006A0002770307081E090E0022E02C0880F991F01
:1006B0000A94E2F7809584238C937DC0A8E3B0E090
:1006C000E8E3F0E08081482F8A81882F90E09C0148
:1006D0002770307081E090E0022E02C0880F991FD1
:1006E0000A94E2F7842B8C9366C08A81883190F556
:1006F0008B818823C1F4A5E3B0E0E5E3F0E08081DD
:10070000482F8A81882F90E09C012770307081E00B
:1007100090E0022E02C0880F991F0A94E2F780959C
:1007200084238C9348C0A5E3B0E0E5E3F0E080814A
:10073000482F8A81882F90E09C012770307081E0DB
:1007400090E0022E02C0880F991F0A94E2F7842BD2
:100750008C9331C08B818823C1F4A2E3B0E0E2E343
:10076000F0E08081482F8A81882F90E09C012770DB
:10077000307081E090E0022E02C0880F991F0A9429
:10078000E2F7809584238C9316C0A2E3B0E0E2E305
:10079000F0E08081482F8A81882F90E09C012770AB
:1007A000307081E090E0022E02C0880F991F0A94F9
:1007B000E2F7842B8C93198289810F900F900F9010
:1007C000CF91DF910895DF93CF9300D0CDB7DEB7FF
:1007D0008A838A81803218F082E0898362C08A81AC
:1007E0008830A0F4ABE3B0E0EBE3F0E08081482F89
:1007F0008A81282F30E081E090E0022E02C0880F2D
:10080000991F0A94E2F784278C934AC08A81803129
:10081000B8F4A8E3B0E0E8E3F0E08081482F8A81F3
:10082000882F90E09C012770307081E090E0022ECC
:1008300002C0880F991F0A94E2F784278C9330C076
:100840008A818831B8F4A5E3B0E0E5E3F0E0808187
:10085000482F8A81882F90E09C012770307081E0BA
:1008600090E0022E02C0880F991F0A94E2F78427B5
:100870008C9316C0A2E3B0E0E2E3F0E08081482F61
:100880008A81882F90E09C012770307081E090E091
:10089000022E02C0880F991F0A94E2F784278C93D6
:1008A000198289810F900F90CF91DF910895DF9386
:1008B000CF9300D000D0CDB7DEB78A837C836B8323
:1008C0008A81803218F082E0898366C08B819C81A6
:1008D000009719F483E089835FC08A818830A0F48F
:1008E000E9E3F0E08081282F30E08A81882F90E0D2
:1008F000A90102C0559547958A95E2F7CA01817012
:10090000EB81FC81808347C08A818031B0F4E6E3CB
:10091000F0E08081282F30E08A81882F90E0877076
:100920009070A90102C0559547958A95E2F7CA01D2
:100930008170EB81FC8180832EC08A818831B0F484
:10094000E3E3F0E08081282F30E08A81882F90E077
:1009500087709070A90102C0559547958A95E2F776
:10096000CA018170EB81FC81808315C0E0E3F0E077
:100970008081282F30E08A81882F90E087709070E6
:10098000A90102C0559547958A95E2F7CA01817081
:10099000EB81FC818083198289810F900F900F90E9
:1009A0000F90CF91DF910895DF93CF9300D0CDB713
:1009B000DEB789836A8389816A810E9400030F9070
:1009C0000F90CF91DF910895DF93CF93CDB7DEB72E
:1009D000A5E5B0E0E5E5F0E080818C7F8C93A5E5AE
:1009E000B0E0E5E5F0E0808182608C93ABE5B0E0BB
:1009F000EBE5F0E080818F7B8C93AAE5B0E0EAE53F
:100A0000F0E0808180648C93CF91DF910895DF9333
:100A1000CF93CDB7DEB7ABE5B0E0EBE5F0E080819A
:100A200080648C93CF91DF910895DF93CF93CDB7FE
:100A3000DEB7ABE5B0E0EBE5F0E080818F7B8C9337
:100A4000CF91DF910895DF93CF930F92CDB7DEB7AB
:100A50008983A5E5B0E0E5E5F0E080818C7F8C93AB
:100A6000A5E5B0E0E5E5F0E08081982F898183700D
:100A7000892B8C930F90CF91DF910895DF93CF93C3
:100A800000D0CDB7DEB79A83898389819A8190930C
:100A9000600180935F010F900F90CF91DF910895D7
:100AA0001F920F920FB60F9211242F933F934F93E3
:100AB0005F936F937F938F939F93AF93BF93EF93C6
:100AC000FF93DF93CF93CDB7DEB7E0915F01F09155
:100AD00060010995CF91DF91FF91EF91BF91AF91A7
:100AE0009F918F917F916F915F914F913F912F9146
:100AF0000F900FBE0F901F901895DF93CF93CDB737
:100B0000DEB7A5E5B0E0E5E5F0E08081837F8C937A
:100B1000A5E5B0E0E5E5F0E080818C93ABE5B0E0E1
:100B2000EBE5F0E080818F778C93AAE5B0E0EAE511
:100B3000F0E0808180688C93CF91DF910895DF93FE
:100B4000CF93CDB7DEB7ABE5B0E0EBE5F0E0808169
:100B500080688C93CF91DF910895DF93CF93CDB7C9
:100B6000DEB7ABE5B0E0EBE5F0E080818F778C930A
:100B7000CF91DF910895DF93CF930F92CDB7DEB77A
:100B80008983A5E5B0E0E5E5F0E08081837F8C9383
:100B9000A5E5B0E0E5E5F0E08081982F89818C70D3
:100BA000892B8C930F90CF91DF910895DF93CF9392
:100BB00000D0CDB7DEB79A83898389819A819093DB
:100BC0006201809361010F900F90CF91DF910895A2
:100BD0001F920F920FB60F9211242F933F934F93B2
:100BE0005F936F937F938F939F93AF93BF93EF9395
:100BF000FF93DF93CF93CDB7DEB7E0916101F09122
:100C000062010995CF91DF91FF91EF91BF91AF9173
:100C10009F918F917F916F915F914F913F912F9114
:100C20000F900FBE0F901F901895DF93CF93CDB705
:100C3000DEB7AFE5B0E0EFE5F0E0808180688C934F
:100C4000CF91DF910895DF93CF93CDB7DEB7AFE5B6
:100C5000B0E0EFE5F0E080818F778C93CF91DF916A
:100C60000895DF93CF9300D0CDB7DEB79A83898301
:100C700089819A81C0979A83898389819A810F900B
:100C80000F90CF91DF910895DF93CF930F92CDB75F
:100C9000DEB780E88983898186608983E0E4F0E0BB
:100CA00089818083AAE2B0E0EAE2F0E08081886195
:100CB0008C93ABE2B0E0EBE2F0E080818C93ABE2AE
:100CC000B0E0EBE2F0E080818C93A0E4B0E0E0E4FF
:100CD000F0E080818F778C93E9E2F0E083E380831A
:100CE000E0E4F0E010820F90CF91DF910895DF9360
:100CF000CF93CDB7DEB7AAE2B0E0EAE2F0E08081C0
:100D000088608C93AAE2B0E0EAE2F0E08081806142
:100D10008C93CF91DF910895DF93CF93CDB7DEB75A
:100D2000AAE2B0E0EAE2F0E08081877F8C93AAE259
:100D3000B0E0EAE2F0E080818F7E8C93CF91DF918A
:100D40000895DF93CF93CDB7DEB7AAE2B0E0EAE231
:100D5000F0E0808180618C93CF91DF910895DF93E3
:100D6000CF93CDB7DEB7AAE2B0E0EAE2F0E080814F
:100D70008F7E8C93CF91DF910895DF93CF93CDB782
:100D8000DEB7AAE2B0E0EAE2F0E0808188608C930E
:100D9000CF91DF910895DF93CF93CDB7DEB7AAE26D
:100DA000B0E0EAE2F0E08081877F8C93CF91DF9121
:100DB0000895DF93CF93CDB7DEB7AAE2B0E0EAE2C1
:100DC000F0E0808180688C93CF91DF910895DF936C
:100DD000CF93CDB7DEB7AAE2B0E0EAE2F0E08081DF
:100DE0008F778C93CF91DF910895DF93CF93CDB719
:100DF000DEB7AAE2B0E0EAE2F0E0808180648C93A2
:100E0000CF91DF910895DF93CF93CDB7DEB7AAE2FC
:100E1000B0E0EAE2F0E080818F7B8C93CF91DF91AC
:100E20000895DF93CF93CDB7DEB7AAE2B0E0EAE250
:100E3000F0E0808180628C93CF91DF910895DF9301
:100E4000CF93CDB7DEB7AAE2B0E0EAE2F0E080816E
:100E50008F7D8C93CF91DF910895DF93CF9300D056
:100E6000CDB7DEB79A83898389819A81909368018F
:100E7000809367010F900F90CF91DF910895DF93DA
:100E8000CF9300D0CDB7DEB79A83898389819A81C9
:100E900090936601809365010F900F90CF91DF9141
:100EA0000895DF93CF9300D0CDB7DEB79A838983BF
:100EB00089819A8190936401809363010F900F90D0
:100EC000CF91DF910895DF93CF930F92CDB7DEB727
:100ED0008983EBE2F0E08081882F90E0807290704F
:100EE0000097B9F3ECE2F0E0898180830F90CF9115
:100EF000DF910895DF93CF9300D0CDB7DEB79A830B
:100F000089830AC0E981FA8180810E94630789810F
:100F10009A8101969A838983E981FA818081882365
:100F200089F70F900F90CF91DF910895DF93CF93C2
:100F3000CDB7DEB7EBE2F0E080818823DCF7ECE2AE
:100F4000F0E08081CF91DF9108951F920F920FB64C
:100F50000F9211242F933F934F935F936F937F933F
:100F60008F939F93AF93BF93EF93FF93DF93CF93B1
:100F7000CDB7DEB7E0916701F09168010995CF9197
:100F8000DF91FF91EF91BF91AF919F918F917F91F1
:100F90006F915F914F913F912F910F900FBE0F90E6
:100FA0001F9018951F920F920FB60F9211242F9336
:100FB0003F934F935F936F937F938F939F93AF93E1
:100FC000BF93EF93FF93DF93CF93CDB7DEB7E0915D
:100FD0006301F09164010995CF91DF91FF91EF9149
:100FE000BF91AF919F918F917F916F915F914F9141
:100FF0003F912F910F900FBE0F901F9018951F9249
:101000000F920FB60F9211242F933F934F935F933C
:101010006F937F938F939F93AF93BF93EF93FF93C0
:10102000DF93CF93CDB7DEB7E0916501F091660114
:101030000995CF91DF91FF91EF91BF91AF919F9172
:101040008F917F916F915F914F913F912F910F9071
:0C1050000FBE0F901F901895F894FFCF72
:10105C0057726F6E67204E616D650057656C636FDC
:10106C006D6520486F6D6500536F6D652074686900
:10107C006E672057726F6E670057726F6E672050E5
:10108C00617373776F7264000A416C690000000031
:10109C00000000313131310053616C6D6100000092
:1010AC000000323232320041686D6564000000008D
:1010BC000033333333004D6F68616D65640000009D
:1010CC0034343434004D6F6E610000000000003584
:1010DC0035353500536F686100000000000036366E
:1010EC00363600456D616E00000000000037373762
:1010FC003700416E73616D000000000038383838DD
:10110C0000446F6861000000000000393939390073
:10111C004F6D617200000000000030303030000074
:00000001FF
